{
  "_format": "hh-sol-artifact-1",
  "contractName": "MedicalRecord",
  "sourceName": "contracts/MedicalRecord.sol",
  "abi": [
    {
      "inputs": [
        {
          "internalType": "string",
          "name": "patientID",
          "type": "string"
        },
        {
          "internalType": "string",
          "name": "dataHash",
          "type": "string"
        },
        {
          "internalType": "uint256",
          "name": "age",
          "type": "uint256"
        },
        {
          "internalType": "string",
          "name": "gender",
          "type": "string"
        },
        {
          "internalType": "string",
          "name": "diagnosis",
          "type": "string"
        }
      ],
      "name": "addRecord",
      "outputs": [],
      "stateMutability": "nonpayable",
      "type": "function"
    },
    {
      "inputs": [
        {
          "internalType": "string",
          "name": "patientID",
          "type": "string"
        },
        {
          "internalType": "address",
          "name": "newDoctor",
          "type": "address"
        }
      ],
      "name": "changeDoctorForPatient",
      "outputs": [],
      "stateMutability": "nonpayable",
      "type": "function"
    },
    {
      "inputs": [
        {
          "internalType": "string",
          "name": "patientID",
          "type": "string"
        }
      ],
      "name": "getRecords",
      "outputs": [
        {
          "components": [
            {
              "internalType": "string",
              "name": "patientID",
              "type": "string"
            },
            {
              "internalType": "string",
              "name": "dataHash",
              "type": "string"
            },
            {
              "internalType": "uint256",
              "name": "timestamp",
              "type": "uint256"
            },
            {
              "internalType": "uint256",
              "name": "age",
              "type": "uint256"
            },
            {
              "internalType": "string",
              "name": "gender",
              "type": "string"
            },
            {
              "internalType": "string",
              "name": "diagnosis",
              "type": "string"
            }
          ],
          "internalType": "struct MedicalRecord.Record[]",
          "name": "",
          "type": "tuple[]"
        }
      ],
      "stateMutability": "view",
      "type": "function"
    },
    {
      "inputs": [
        {
          "internalType": "string",
          "name": "",
          "type": "string"
        }
      ],
      "name": "isPatientRegistered",
      "outputs": [
        {
          "internalType": "bool",
          "name": "",
          "type": "bool"
        }
      ],
      "stateMutability": "view",
      "type": "function"
    },
    {
      "inputs": [
        {
          "internalType": "string",
          "name": "",
          "type": "string"
        }
      ],
      "name": "patientToDoctor",
      "outputs": [
        {
          "internalType": "address",
          "name": "",
          "type": "address"
        }
      ],
      "stateMutability": "view",
      "type": "function"
    },
    {
      "inputs": [
        {
          "internalType": "string",
          "name": "",
          "type": "string"
        },
        {
          "internalType": "uint256",
          "name": "",
          "type": "uint256"
        }
      ],
      "name": "records",
      "outputs": [
        {
          "internalType": "string",
          "name": "patientID",
          "type": "string"
        },
        {
          "internalType": "string",
          "name": "dataHash",
          "type": "string"
        },
        {
          "internalType": "uint256",
          "name": "timestamp",
          "type": "uint256"
        },
        {
          "internalType": "uint256",
          "name": "age",
          "type": "uint256"
        },
        {
          "internalType": "string",
          "name": "gender",
          "type": "string"
        },
        {
          "internalType": "string",
          "name": "diagnosis",
          "type": "string"
        }
      ],
      "stateMutability": "view",
      "type": "function"
    },
    {
      "inputs": [
        {
          "internalType": "string",
          "name": "patientID",
          "type": "string"
        }
      ],
      "name": "registerPatient",
      "outputs": [],
      "stateMutability": "nonpayable",
      "type": "function"
    },
    {
      "inputs": [
        {
          "internalType": "string",
          "name": "patientID",
          "type": "string"
        },
        {
          "internalType": "address",
          "name": "doctor",
          "type": "address"
        }
      ],
      "name": "setDoctorForPatient",
      "outputs": [],
      "stateMutability": "nonpayable",
      "type": "function"
    }
  ],
  "bytecode": "0x608060405234801561001057600080fd5b50611a25806100206000396000f3fe608060405234801561001057600080fd5b50600436106100885760003560e01c806364e71c521161005b57806364e71c521461012a578063869c9eaf1461014657806386e80b71146101625780639c4d69681461019257610088565b80632bf0aec21461008d5780633b51650d146100a95780633b91e045146100de5780634f10c6c2146100fa575b600080fd5b6100a760048036038101906100a29190610f3a565b6101c2565b005b6100c360048036038101906100be9190610fcc565b61033b565b6040516100d5969594939291906110b6565b60405180910390f35b6100f860048036038101906100f39190611133565b6105ca565b005b610114600480360381019061010f919061121e565b61075f565b6040516101219190611282565b60405180910390f35b610144600480360381019061013f9190610f3a565b610795565b005b610160600480360381019061015b919061121e565b61090e565b005b61017c6004803603810190610177919061121e565b6109b4565b6040516101899190611456565b60405180910390f35b6101ac60048036038101906101a7919061121e565b610d39565b6040516101b99190611487565b60405180910390f35b6002826040516101d291906114de565b908152602001604051809103902060009054906101000a900460ff1661022d576040517f08c379a000000000000000000000000000000000000000000000000000000000815260040161022490611541565b60405180910390fd5b600073ffffffffffffffffffffffffffffffffffffffff1660018360405161025591906114de565b908152602001604051809103902060009054906101000a900473ffffffffffffffffffffffffffffffffffffffff1673ffffffffffffffffffffffffffffffffffffffff16146102da576040517f08c379a00000000000000000000000000000000000000000000000000000000081526004016102d1906115ad565b60405180910390fd5b806001836040516102eb91906114de565b908152602001604051809103902060006101000a81548173ffffffffffffffffffffffffffffffffffffffff021916908373ffffffffffffffffffffffffffffffffffffffff1602179055505050565b600082805160208101820180518482526020830160208501208183528095505050505050818154811061036d57600080fd5b906000526020600020906006020160009150915050806000018054610391906115fc565b80601f01602080910402602001604051908101604052809291908181526020018280546103bd906115fc565b801561040a5780601f106103df5761010080835404028352916020019161040a565b820191906000526020600020905b8154815290600101906020018083116103ed57829003601f168201915b50505050509080600101805461041f906115fc565b80601f016020809104026020016040519081016040528092919081815260200182805461044b906115fc565b80156104985780601f1061046d57610100808354040283529160200191610498565b820191906000526020600020905b81548152906001019060200180831161047b57829003601f168201915b5050505050908060020154908060030154908060040180546104b9906115fc565b80601f01602080910402602001604051908101604052809291908181526020018280546104e5906115fc565b80156105325780601f1061050757610100808354040283529160200191610532565b820191906000526020600020905b81548152906001019060200180831161051557829003601f168201915b505050505090806005018054610547906115fc565b80601f0160208091040260200160405190810160405280929190818152602001828054610573906115fc565b80156105c05780601f10610595576101008083540402835291602001916105c0565b820191906000526020600020905b8154815290600101906020018083116105a357829003601f168201915b5050505050905086565b3373ffffffffffffffffffffffffffffffffffffffff166001866040516105f191906114de565b908152602001604051809103902060009054906101000a900473ffffffffffffffffffffffffffffffffffffffff1673ffffffffffffffffffffffffffffffffffffffff1614610676576040517f08c379a000000000000000000000000000000000000000000000000000000000815260040161066d90611679565b60405180910390fd5b60008560405161068691906114de565b90815260200160405180910390206040518060c0016040528087815260200186815260200142815260200185815260200184815260200183815250908060018154018082558091505060019003906000526020600020906006020160009091909190915060008201518160000190816106ff9190611845565b5060208201518160010190816107159190611845565b506040820151816002015560608201518160030155608082015181600401908161073f9190611845565b5060a08201518160050190816107559190611845565b5050505050505050565b6002818051602081018201805184825260208301602085012081835280955050505050506000915054906101000a900460ff1681565b6002826040516107a591906114de565b908152602001604051809103902060009054906101000a900460ff16610800576040517f08c379a00000000000000000000000000000000000000000000000000000000081526004016107f790611541565b60405180910390fd5b600073ffffffffffffffffffffffffffffffffffffffff1660018360405161082891906114de565b908152602001604051809103902060009054906101000a900473ffffffffffffffffffffffffffffffffffffffff1673ffffffffffffffffffffffffffffffffffffffff16036108ad576040517f08c379a00000000000000000000000000000000000000000000000000000000081526004016108a490611963565b60405180910390fd5b806001836040516108be91906114de565b908152602001604051809103902060006101000a81548173ffffffffffffffffffffffffffffffffffffffff021916908373ffffffffffffffffffffffffffffffffffffffff1602179055505050565b60028160405161091e91906114de565b908152602001604051809103902060009054906101000a900460ff161561097a576040517f08c379a0000000000000000000000000000000000000000000000000000000008152600401610971906119cf565b60405180910390fd5b600160028260405161098c91906114de565b908152602001604051809103902060006101000a81548160ff02191690831515021790555050565b60603373ffffffffffffffffffffffffffffffffffffffff166001836040516109dd91906114de565b908152602001604051809103902060009054906101000a900473ffffffffffffffffffffffffffffffffffffffff1673ffffffffffffffffffffffffffffffffffffffff1614610a62576040517f08c379a0000000000000000000000000000000000000000000000000000000008152600401610a5990611679565b60405180910390fd5b600082604051610a7291906114de565b9081526020016040518091039020805480602002602001604051908101604052809291908181526020016000905b82821015610d2e57838290600052602060002090600602016040518060c0016040529081600082018054610ad3906115fc565b80601f0160208091040260200160405190810160405280929190818152602001828054610aff906115fc565b8015610b4c5780601f10610b2157610100808354040283529160200191610b4c565b820191906000526020600020905b815481529060010190602001808311610b2f57829003601f168201915b50505050508152602001600182018054610b65906115fc565b80601f0160208091040260200160405190810160405280929190818152602001828054610b91906115fc565b8015610bde5780601f10610bb357610100808354040283529160200191610bde565b820191906000526020600020905b815481529060010190602001808311610bc157829003601f168201915b505050505081526020016002820154815260200160038201548152602001600482018054610c0b906115fc565b80601f0160208091040260200160405190810160405280929190818152602001828054610c37906115fc565b8015610c845780601f10610c5957610100808354040283529160200191610c84565b820191906000526020600020905b815481529060010190602001808311610c6757829003601f168201915b50505050508152602001600582018054610c9d906115fc565b80601f0160208091040260200160405190810160405280929190818152602001828054610cc9906115fc565b8015610d165780601f10610ceb57610100808354040283529160200191610d16565b820191906000526020600020905b815481529060010190602001808311610cf957829003601f168201915b50505050508152505081526020019060010190610aa0565b505050509050919050565b6001818051602081018201805184825260208301602085012081835280955050505050506000915054906101000a900473ffffffffffffffffffffffffffffffffffffffff1681565b6000604051905090565b600080fd5b600080fd5b600080fd5b600080fd5b6000601f19601f8301169050919050565b7f4e487b7100000000000000000000000000000000000000000000000000000000600052604160045260246000fd5b610de982610da0565b810181811067ffffffffffffffff82111715610e0857610e07610db1565b5b80604052505050565b6000610e1b610d82565b9050610e278282610de0565b919050565b600067ffffffffffffffff821115610e4757610e46610db1565b5b610e5082610da0565b9050602081019050919050565b82818337600083830152505050565b6000610e7f610e7a84610e2c565b610e11565b905082815260208101848484011115610e9b57610e9a610d9b565b5b610ea6848285610e5d565b509392505050565b600082601f830112610ec357610ec2610d96565b5b8135610ed3848260208601610e6c565b91505092915050565b600073ffffffffffffffffffffffffffffffffffffffff82169050919050565b6000610f0782610edc565b9050919050565b610f1781610efc565b8114610f2257600080fd5b50565b600081359050610f3481610f0e565b92915050565b60008060408385031215610f5157610f50610d8c565b5b600083013567ffffffffffffffff811115610f6f57610f6e610d91565b5b610f7b85828601610eae565b9250506020610f8c85828601610f25565b9150509250929050565b6000819050919050565b610fa981610f96565b8114610fb457600080fd5b50565b600081359050610fc681610fa0565b92915050565b60008060408385031215610fe357610fe2610d8c565b5b600083013567ffffffffffffffff81111561100157611000610d91565b5b61100d85828601610eae565b925050602061101e85828601610fb7565b9150509250929050565b600081519050919050565b600082825260208201905092915050565b60005b83811015611062578082015181840152602081019050611047565b60008484015250505050565b600061107982611028565b6110838185611033565b9350611093818560208601611044565b61109c81610da0565b840191505092915050565b6110b081610f96565b82525050565b600060c08201905081810360008301526110d0818961106e565b905081810360208301526110e4818861106e565b90506110f360408301876110a7565b61110060608301866110a7565b8181036080830152611112818561106e565b905081810360a0830152611126818461106e565b9050979650505050505050565b600080600080600060a0868803121561114f5761114e610d8c565b5b600086013567ffffffffffffffff81111561116d5761116c610d91565b5b61117988828901610eae565b955050602086013567ffffffffffffffff81111561119a57611199610d91565b5b6111a688828901610eae565b94505060406111b788828901610fb7565b935050606086013567ffffffffffffffff8111156111d8576111d7610d91565b5b6111e488828901610eae565b925050608086013567ffffffffffffffff81111561120557611204610d91565b5b61121188828901610eae565b9150509295509295909350565b60006020828403121561123457611233610d8c565b5b600082013567ffffffffffffffff81111561125257611251610d91565b5b61125e84828501610eae565b91505092915050565b60008115159050919050565b61127c81611267565b82525050565b60006020820190506112976000830184611273565b92915050565b600081519050919050565b600082825260208201905092915050565b6000819050602082019050919050565b600082825260208201905092915050565b60006112e582611028565b6112ef81856112c9565b93506112ff818560208601611044565b61130881610da0565b840191505092915050565b61131c81610f96565b82525050565b600060c083016000830151848203600086015261133f82826112da565b9150506020830151848203602086015261135982826112da565b915050604083015161136e6040860182611313565b5060608301516113816060860182611313565b506080830151848203608086015261139982826112da565b91505060a083015184820360a08601526113b382826112da565b9150508091505092915050565b60006113cc8383611322565b905092915050565b6000602082019050919050565b60006113ec8261129d565b6113f681856112a8565b935083602082028501611408856112b9565b8060005b85811015611444578484038952815161142585826113c0565b9450611430836113d4565b925060208a0199505060018101905061140c565b50829750879550505050505092915050565b6000602082019050818103600083015261147081846113e1565b905092915050565b61148181610efc565b82525050565b600060208201905061149c6000830184611478565b92915050565b600081905092915050565b60006114b882611028565b6114c281856114a2565b93506114d2818560208601611044565b80840191505092915050565b60006114ea82846114ad565b915081905092915050565b7f50617469656e74206e6f74207265676973746572656400000000000000000000600082015250565b600061152b601683611033565b9150611536826114f5565b602082019050919050565b6000602082019050818103600083015261155a8161151e565b9050919050565b7f446f63746f7220616c72656164792073657420666f722070617469656e740000600082015250565b6000611597601e83611033565b91506115a282611561565b602082019050919050565b600060208201905081810360008301526115c68161158a565b9050919050565b7f4e487b7100000000000000000000000000000000000000000000000000000000600052602260045260246000fd5b6000600282049050600182168061161457607f821691505b602082108103611627576116266115cd565b5b50919050565b7f4e6f7420617574686f72697a6564000000000000000000000000000000000000600082015250565b6000611663600e83611033565b915061166e8261162d565b602082019050919050565b6000602082019050818103600083015261169281611656565b9050919050565b60008190508160005260206000209050919050565b60006020601f8301049050919050565b600082821b905092915050565b6000600883026116fb7fffffffffffffffffffffffffffffffffffffffffffffffffffffffffffffffff826116be565b61170586836116be565b95508019841693508086168417925050509392505050565b6000819050919050565b600061174261173d61173884610f96565b61171d565b610f96565b9050919050565b6000819050919050565b61175c83611727565b61177061176882611749565b8484546116cb565b825550505050565b600090565b611785611778565b611790818484611753565b505050565b5b818110156117b4576117a960008261177d565b600181019050611796565b5050565b601f8211156117f9576117ca81611699565b6117d3846116ae565b810160208510156117e2578190505b6117f66117ee856116ae565b830182611795565b50505b505050565b600082821c905092915050565b600061181c600019846008026117fe565b1980831691505092915050565b6000611835838361180b565b9150826002028217905092915050565b61184e82611028565b67ffffffffffffffff81111561186757611866610db1565b5b61187182546115fc565b61187c8282856117b8565b600060209050601f8311600181146118af576000841561189d578287015190505b6118a78582611829565b86555061190f565b601f1984166118bd86611699565b60005b828110156118e5578489015182556001820191506020850194506020810190506118c0565b8683101561190257848901516118fe601f89168261180b565b8355505b6001600288020188555050505b505050505050565b7f446f63746f72206e6f742073657420666f722070617469656e74000000000000600082015250565b600061194d601a83611033565b915061195882611917565b602082019050919050565b6000602082019050818103600083015261197c81611940565b9050919050565b7f50617469656e7420616c72656164792072656769737465726564000000000000600082015250565b60006119b9601a83611033565b91506119c482611983565b602082019050919050565b600060208201905081810360008301526119e8816119ac565b905091905056fea2646970667358221220309b7b5fa27ba62283b51bb1dfbb1bf3295f4ad9a0a4163083fdb1db94af1d0564736f6c63430008180033",
  "linkReferences": {},
  "deployedLinkReferences": {}
}